{
  "address": "0x125aB5ccF4cefEdeE7D917d5F169a6E680C8C78A",
  "abi": [
    {
      "inputs": [
        {
          "internalType": "address",
          "name": "_owner",
          "type": "address"
        },
        {
          "internalType": "contract REPToken",
          "name": "_repToken",
          "type": "address"
        },
        {
          "internalType": "uint256",
          "name": "_rewardRateScaled",
          "type": "uint256"
        }
      ],
      "stateMutability": "nonpayable",
      "type": "constructor"
    },
    {
      "inputs": [
        {
          "internalType": "address",
          "name": "owner",
          "type": "address"
        }
      ],
      "name": "OwnableInvalidOwner",
      "type": "error"
    },
    {
      "inputs": [
        {
          "internalType": "address",
          "name": "account",
          "type": "address"
        }
      ],
      "name": "OwnableUnauthorizedAccount",
      "type": "error"
    },
    {
      "inputs": [],
      "name": "ReentrancyGuardReentrantCall",
      "type": "error"
    },
    {
      "anonymous": false,
      "inputs": [
        {
          "indexed": true,
          "internalType": "address",
          "name": "previousOwner",
          "type": "address"
        },
        {
          "indexed": true,
          "internalType": "address",
          "name": "newOwner",
          "type": "address"
        }
      ],
      "name": "OwnershipTransferred",
      "type": "event"
    },
    {
      "anonymous": false,
      "inputs": [
        {
          "indexed": false,
          "internalType": "uint256",
          "name": "rewardRateScaled",
          "type": "uint256"
        }
      ],
      "name": "RewardRateUpdated",
      "type": "event"
    },
    {
      "anonymous": false,
      "inputs": [
        {
          "indexed": true,
          "internalType": "address",
          "name": "user",
          "type": "address"
        },
        {
          "indexed": false,
          "internalType": "uint256",
          "name": "amount",
          "type": "uint256"
        }
      ],
      "name": "RewardsClaimed",
      "type": "event"
    },
    {
      "anonymous": false,
      "inputs": [
        {
          "indexed": true,
          "internalType": "address",
          "name": "user",
          "type": "address"
        },
        {
          "indexed": false,
          "internalType": "uint256",
          "name": "amount",
          "type": "uint256"
        }
      ],
      "name": "Staked",
      "type": "event"
    },
    {
      "anonymous": false,
      "inputs": [
        {
          "indexed": true,
          "internalType": "address",
          "name": "user",
          "type": "address"
        },
        {
          "indexed": false,
          "internalType": "uint256",
          "name": "amount",
          "type": "uint256"
        }
      ],
      "name": "Withdrawn",
      "type": "event"
    },
    {
      "inputs": [],
      "name": "claimRewards",
      "outputs": [],
      "stateMutability": "nonpayable",
      "type": "function"
    },
    {
      "inputs": [],
      "name": "exit",
      "outputs": [],
      "stateMutability": "nonpayable",
      "type": "function"
    },
    {
      "inputs": [],
      "name": "owner",
      "outputs": [
        {
          "internalType": "address",
          "name": "",
          "type": "address"
        }
      ],
      "stateMutability": "view",
      "type": "function"
    },
    {
      "inputs": [
        {
          "internalType": "address",
          "name": "user",
          "type": "address"
        }
      ],
      "name": "pendingRewards",
      "outputs": [
        {
          "internalType": "uint256",
          "name": "",
          "type": "uint256"
        }
      ],
      "stateMutability": "view",
      "type": "function"
    },
    {
      "inputs": [],
      "name": "renounceOwnership",
      "outputs": [],
      "stateMutability": "nonpayable",
      "type": "function"
    },
    {
      "inputs": [],
      "name": "repToken",
      "outputs": [
        {
          "internalType": "contract REPToken",
          "name": "",
          "type": "address"
        }
      ],
      "stateMutability": "view",
      "type": "function"
    },
    {
      "inputs": [],
      "name": "rewardRateScaled",
      "outputs": [
        {
          "internalType": "uint256",
          "name": "",
          "type": "uint256"
        }
      ],
      "stateMutability": "view",
      "type": "function"
    },
    {
      "inputs": [
        {
          "internalType": "uint256",
          "name": "_rewardRateScaled",
          "type": "uint256"
        }
      ],
      "name": "setRewardRate",
      "outputs": [],
      "stateMutability": "nonpayable",
      "type": "function"
    },
    {
      "inputs": [],
      "name": "stake",
      "outputs": [],
      "stateMutability": "payable",
      "type": "function"
    },
    {
      "inputs": [],
      "name": "totalStaked",
      "outputs": [
        {
          "internalType": "uint256",
          "name": "",
          "type": "uint256"
        }
      ],
      "stateMutability": "view",
      "type": "function"
    },
    {
      "inputs": [
        {
          "internalType": "address",
          "name": "newOwner",
          "type": "address"
        }
      ],
      "name": "transferOwnership",
      "outputs": [],
      "stateMutability": "nonpayable",
      "type": "function"
    },
    {
      "inputs": [
        {
          "internalType": "address",
          "name": "",
          "type": "address"
        }
      ],
      "name": "users",
      "outputs": [
        {
          "internalType": "uint256",
          "name": "staked",
          "type": "uint256"
        },
        {
          "internalType": "uint256",
          "name": "rewardsAccrued",
          "type": "uint256"
        },
        {
          "internalType": "uint256",
          "name": "lastUpdate",
          "type": "uint256"
        }
      ],
      "stateMutability": "view",
      "type": "function"
    },
    {
      "inputs": [
        {
          "internalType": "uint256",
          "name": "amount",
          "type": "uint256"
        }
      ],
      "name": "withdraw",
      "outputs": [],
      "stateMutability": "nonpayable",
      "type": "function"
    },
    {
      "stateMutability": "payable",
      "type": "receive"
    }
  ],
  "transactionHash": "0xf795eadefa76e56b3d90eb9296ea58729e4e30c7a3bbe6e5808bba7900c6c029",
  "args": [
    "0xdee3a0f65AbaB31ff1698CdF54Fa19D7921B87F6",
    "0xcE152213F59Cc120a654de44774B80a434d3e903",
    "1000000000000000"
  ],
  "numDeployments": 1,
  "solcInputHash": "9fab0405cc18564bc3fe81a799c198e4",
  "bytecode": "0x60a060405234801561001057600080fd5b50604051610c11380380610c1183398101604081905261002f91610164565b826001600160a01b03811661005f57604051631e4fbdf760e01b8152600060048201526024015b60405180910390fd5b610068816100fc565b50600180556001600160a01b0382166100af5760405162461bcd60e51b81526020600482015260096024820152683932b8103a37b5b2b760b91b6044820152606401610056565b6001600160a01b03821660805260028190556040518181527f41d466ebd06fb97e7786086ac8b69b7eb7da798592036251291d34e9791cde019060200160405180910390a15050506101a7565b600080546001600160a01b038381166001600160a01b0319831681178455604051919092169283917f8be0079c531659141344cd1fd0a4f28419497f9722a3daafe3b4186f6b6457e09190a35050565b6001600160a01b038116811461016157600080fd5b50565b60008060006060848603121561017957600080fd5b83516101848161014c565b60208501519093506101958161014c565b80925050604084015190509250925092565b608051610a496101c86000396000818160ee01526108400152610a496000f3fe6080604052600436106100c65760003560e01c8063817b1cd21161007f5780639e447fc6116100595780639e447fc6146101f7578063a87430ba14610217578063e9fad8ee1461026e578063f2fde38b1461028357600080fd5b8063817b1cd2146101ad5780638ba732dc146101c35780638da5cb5b146101d957600080fd5b806329034a5c146100dc5780632e1a7d4d1461012d57806331d7a2621461014d578063372500ab1461017b5780633a4b66f114610190578063715018a61461019857600080fd5b366100d7576100d533346102a3565b005b600080fd5b3480156100e857600080fd5b506101107f000000000000000000000000000000000000000000000000000000000000000081565b6040516001600160a01b0390911681526020015b60405180910390f35b34801561013957600080fd5b506100d5610148366004610956565b610335565b34801561015957600080fd5b5061016d61016836600461096f565b610353565b604051908152602001610124565b34801561018757600080fd5b506100d56103f4565b6100d5610410565b3480156101a457600080fd5b506100d5610462565b3480156101b957600080fd5b5061016d60045481565b3480156101cf57600080fd5b5061016d60025481565b3480156101e557600080fd5b506000546001600160a01b0316610110565b34801561020357600080fd5b506100d5610212366004610956565b610474565b34801561022357600080fd5b5061025361023236600461096f565b60036020526000908152604090208054600182015460029092015490919083565b60408051938452602084019290925290820152606001610124565b34801561027a57600080fd5b506100d56104b7565b34801561028f57600080fd5b506100d561029e36600461096f565b61050a565b6102ac82610545565b6001600160a01b038216600090815260036020526040812080548392906102d49084906109ae565b9250508190555080600460008282546102ed91906109ae565b90915550506040518181526001600160a01b038316907f9e71bc8eea02a63969f509818f2dafb9254532904319f9dbda79b67bd34a5f3d906020015b60405180910390a25050565b61033d6105dd565b6103473382610607565b61035060018055565b50565b6001600160a01b038116600090815260036020908152604080832081516060810183528154808252600183015494820185905260029092015492810192909252909190156103ed5760008260400151426103ad91906109c7565b9050670de0b6b3a76400008160025485600001516103cb91906109da565b6103d591906109da565b6103df91906109f1565b6103e990836109ae565b9150505b9392505050565b6103fc6105dd565b610405336107a4565b61040e60018055565b565b6104186105dd565b600034116104585760405162461bcd60e51b81526020600482015260086024820152676e6f2076616c756560c01b60448201526064015b60405180910390fd5b61040533346102a3565b61046a6108d9565b61040e6000610906565b61047c6108d9565b60028190556040518181527f41d466ebd06fb97e7786086ac8b69b7eb7da798592036251291d34e9791cde019060200160405180910390a150565b6104bf6105dd565b3360009081526003602052604090205480156104df576104df3382610607565b336000908152600360205260409020600101541561050057610500336107a4565b5061040e60018055565b6105126108d9565b6001600160a01b03811661053c57604051631e4fbdf760e01b81526000600482015260240161044f565b61035081610906565b6001600160a01b03811660009081526003602052604090206002810154158015906105705750805415155b156105d357600081600201544261058791906109c7565b9050670de0b6b3a76400008160025484600001546105a591906109da565b6105af91906109da565b6105b991906109f1565b8260010160008282546105cc91906109ae565b9091555050505b4260029091015550565b60026001540361060057604051633ee5aeb560e01b815260040160405180910390fd5b6002600155565b600081116106405760405162461bcd60e51b8152602060048201526006602482015265185b5bdd5b9d60d21b604482015260640161044f565b6001600160a01b038216600090815260036020526040902080548211156106935760405162461bcd60e51b81526020600482015260076024820152666578636565647360c81b604482015260640161044f565b61069c83610545565b818160000160008282546106b091906109c7565b9250508190555081600460008282546106c991906109c7565b90915550506040516000906001600160a01b0385169084908381818185875af1925050503d8060008114610719576040519150601f19603f3d011682016040523d82523d6000602084013e61071e565b606091505b505090508061075b5760405162461bcd60e51b81526020600482015260096024820152681cd95b990819985a5b60ba1b604482015260640161044f565b836001600160a01b03167f7084f5476618d8e60b11ef0d7d3f06914655adb8793e28ff7f018d4c76d505d58460405161079691815260200190565b60405180910390a250505050565b6107ad81610545565b6001600160a01b038116600090815260036020526040902060010154806108035760405162461bcd60e51b815260206004820152600a6024820152696e6f207265776172647360b01b604482015260640161044f565b6001600160a01b0382811660008181526003602052604080822060010191909155516340c10f1960e01b81526004810191909152602481018390527f0000000000000000000000000000000000000000000000000000000000000000909116906340c10f1990604401600060405180830381600087803b15801561088657600080fd5b505af115801561089a573d6000803e3d6000fd5b50505050816001600160a01b03167ffc30cddea38e2bf4d6ea7d3f9ed3b6ad7f176419f4963bd81318067a4aee73fe8260405161032991815260200190565b6000546001600160a01b0316331461040e5760405163118cdaa760e01b815233600482015260240161044f565b600080546001600160a01b038381166001600160a01b0319831681178455604051919092169283917f8be0079c531659141344cd1fd0a4f28419497f9722a3daafe3b4186f6b6457e09190a35050565b60006020828403121561096857600080fd5b5035919050565b60006020828403121561098157600080fd5b81356001600160a01b03811681146103ed57600080fd5b634e487b7160e01b600052601160045260246000fd5b808201808211156109c1576109c1610998565b92915050565b818103818111156109c1576109c1610998565b80820281158282048414176109c1576109c1610998565b600082610a0e57634e487b7160e01b600052601260045260246000fd5b50049056fea2646970667358221220e27e9fe0aad4421c02931abc866f8f8251e47ac457f090fbd2bdfea6389591f164736f6c63430008140033",
  "devdoc": {
    "errors": {
      "OwnableInvalidOwner(address)": [
        {
          "details": "The owner is not a valid owner account. (eg. `address(0)`)"
        }
      ],
      "OwnableUnauthorizedAccount(address)": [
        {
          "details": "The caller account is not authorized to perform an operation."
        }
      ],
      "ReentrancyGuardReentrantCall()": [
        {
          "details": "Unauthorized reentrant call."
        }
      ]
    },
    "kind": "dev",
    "methods": {
      "owner()": {
        "details": "Returns the address of the current owner."
      },
      "renounceOwnership()": {
        "details": "Leaves the contract without owner. It will not be possible to call `onlyOwner` functions. Can only be called by the current owner. NOTE: Renouncing ownership will leave the contract without an owner, thereby disabling any functionality that is only available to the owner."
      },
      "transferOwnership(address)": {
        "details": "Transfers ownership of the contract to a new account (`newOwner`). Can only be called by the current owner."
      }
    },
    "title": "Native token staking with REP rewards",
    "version": 1
  },
  "userdoc": {
    "kind": "user",
    "methods": {},
    "notice": "Users stake native coin (e.g., TRUST) and earn REP at a fixed rate per second.",
    "version": 1
  },
  "storageLayout": {
    "storage": [
      {
        "astId": 8,
        "contract": "contracts/Staking.sol:Staking",
        "label": "_owner",
        "offset": 0,
        "slot": "0",
        "type": "t_address"
      },
      {
        "astId": 944,
        "contract": "contracts/Staking.sol:Staking",
        "label": "_status",
        "offset": 0,
        "slot": "1",
        "type": "t_uint256"
      },
      {
        "astId": 1059,
        "contract": "contracts/Staking.sol:Staking",
        "label": "rewardRateScaled",
        "offset": 0,
        "slot": "2",
        "type": "t_uint256"
      },
      {
        "astId": 1071,
        "contract": "contracts/Staking.sol:Staking",
        "label": "users",
        "offset": 0,
        "slot": "3",
        "type": "t_mapping(t_address,t_struct(UserInfo)1066_storage)"
      },
      {
        "astId": 1073,
        "contract": "contracts/Staking.sol:Staking",
        "label": "totalStaked",
        "offset": 0,
        "slot": "4",
        "type": "t_uint256"
      }
    ],
    "types": {
      "t_address": {
        "encoding": "inplace",
        "label": "address",
        "numberOfBytes": "20"
      },
      "t_mapping(t_address,t_struct(UserInfo)1066_storage)": {
        "encoding": "mapping",
        "key": "t_address",
        "label": "mapping(address => struct Staking.UserInfo)",
        "numberOfBytes": "32",
        "value": "t_struct(UserInfo)1066_storage"
      },
      "t_struct(UserInfo)1066_storage": {
        "encoding": "inplace",
        "label": "struct Staking.UserInfo",
        "members": [
          {
            "astId": 1061,
            "contract": "contracts/Staking.sol:Staking",
            "label": "staked",
            "offset": 0,
            "slot": "0",
            "type": "t_uint256"
          },
          {
            "astId": 1063,
            "contract": "contracts/Staking.sol:Staking",
            "label": "rewardsAccrued",
            "offset": 0,
            "slot": "1",
            "type": "t_uint256"
          },
          {
            "astId": 1065,
            "contract": "contracts/Staking.sol:Staking",
            "label": "lastUpdate",
            "offset": 0,
            "slot": "2",
            "type": "t_uint256"
          }
        ],
        "numberOfBytes": "96"
      },
      "t_uint256": {
        "encoding": "inplace",
        "label": "uint256",
        "numberOfBytes": "32"
      }
    }
  }
}